:100000000C941B010C944C010C944C010C944C016D
:100010000C944C010C944C010C944C010C944C012C
:100020000C944C010C944C010C944C010C944C011C
:100030000C944C010C944C010C944C010C944C010C
:100040000C944C010C944C010C944C010C944C01FC
:100050000C944C010C944C010C944C010C94E90D43
:100060000C944C010C945D0E0C94330E0C944C01CA
:100070000C944C010C944C010C944C010C944C01CC
:100080000C944C010C944C010C944C010C944C01BC
:100090000C944C010C944C010C944C010C944C01AC
:1000A0000C944C010C944C010C944C010C944C019C
:1000B0000C944C010C944C010C944C010C944C018C
:1000C0000C944C010C944C010C944C010C944C017C
:1000D0000C944C010C944C010C944C010C944C016C
:1000E0000C944C010C94C2010C9483010C94A1015A
:1000F0000C94ED020C949D010C9446020C94B801F2
:100100000C9437020C94A0020C9499010C94BC013D
:100110000C94D0010C94C6010C94AD110C94AE015A
:100120000C94A4010C9495010C947E010C940A0289
:100130000C94AA010C9468020C94B4010C94D401A0
:100140000C94CA010C945A020000220025002800D9
:100150002B002E00310034000201000005010801CF
:100160000B0105050505070508080808020202023B
:100170000A0A080804040404010101010101010143
:100180000303030303030303040707070C0C0C0C0E
:100190000C0C0C0C020202020606060606060606F7
:1001A0000B0B0B0B0B0B0B0B010210202008081084
:1001B00020401020408002010201080402010102D7
:1001C00004081020408080402010080402018004B0
:1001D000020180402010080402010804020101020B
:1001E0000408102040800102040810204080000014
:1001F0000A0B02090C0D0E080703040100000000A1
:1002000000000000000000000000000000000000EE
:1002100000000000000000000000121110000000AB
:1002200000000000000000000000000000000000CE
:1002300000000000AD1111241FBECFEFDFEFDEBFC5
:10024000CDBF00E00CBF14E0A0E0B2E0E0E9F6E2D0
:1002500000E00BBF02C007900D92A634B107D9F79A
:1002600028E0A6E4B4E001C01D92A930B207E1F78E
:1002700011E0CBE1D1E000E006C021970109802F19
:10028000FE010E94DA11CA31D10780E00807A9F700
:100290000E94930E0C9446130C940000282F30E01B
:1002A000F901E251FE4F9491F901E855FE4F449156
:1002B0002E593E4FF9012491222309F435C0992388
:1002C00011F191509231F8F4E92FF0E08827E459C8
:1002D000FE4F8F4F0C94DA119D01A1017E01950113
:1002E00099018301A401AA01AE01B401B801BC01C6
:1002F000C201C6018301CA01D001D40180918000EE
:100300008F7780938000E22FF0E0EE0FFF1FE85B15
:10031000FE4FA591B4918FB7F894EC91611148C04C
:1003200040954E234C938FBF0895809180008F7D20
:10033000E8CF80918000877FE4CF84B58F7784BD3C
:10034000E2CF84B58F7DFBCF8091B0008F77809313
:10035000B000D9CF8091B0008F7DF9CF809190000F
:100360008F7780939000CFCF809190008F7DF9CFD1
:1003700080919000877FF5CF8091A0008F77809348
:10038000A000C1CF8091A0008F7DF9CF8091A00007
:10039000877FF5CF809120018F7780932001B3CFA5
:1003A000809120018F7DF9CF80912001877FF5CF4B
:1003B0004E2BB8CF8230910538F0880F991F880FE7
:1003C000991F05970197F1F708953FB7F894809129
:1003D000010890910208A0910308B091040826B585
:1003E000A89B05C02F3F19F00196A11DB11D3FBF6D
:1003F000BA2FA92F982F8827BC01CD01620F711D3C
:10040000811D911D42E0660F771F881F991F4A9535
:10041000D1F70895AF92BF92CF92DF92EF92FF9201
:100420000F931F93CF93DF936C017B018B01040F1C
:10043000151FEB015E01AE18BF08C017D10759F0B8
:100440006991D601ED91FC910190F081E02DC601FA
:100450001995892B79F7C501DF91CF911F910F91E4
:10046000FF90EF90DF90CF90BF90AF900895FC0188
:10047000538D448D252F30E0842F90E0821B930B09
:10048000541710F0CF96089501970895FC01918DAF
:10049000828D981761F0A28DAE0FBF2FB11D5D96B2
:1004A0008C91928D9F5F9F73928F90E008958FEF54
:1004B0009FEF0895FC01918D828D981731F0828D08
:1004C000E80FF11D858D90E008958FEF9FEF08955F
:1004D000FC01918D228D892F90E0805C9F4F821BC3
:1004E00091098F73992708958EE397E00E9468021F
:1004F00021E0892B09F420E0822F0895FC01A48DCE
:10050000A80FB92FB11DA35ABF4F2C91848D90E035
:1005100001968F739927848FA689B7892C93A08918
:10052000B1898C91837080648C93938D848D9813A2
:1005300006C00288F389E02D80818F7D8083089535
:10054000EF92FF920F931F93CF93DF93EC0181E023
:10055000888F9B8D8C8D98131AC0E889F9898081CA
:1005600085FF15C09FB7F894EE89FF896083E889FD
:10057000F98980818370806480839FBF81E090E0EF
:10058000DF91CF911F910F91FF90EF900895F62E7C
:100590000B8D10E00F5F1F4F0F731127E02E8C8D16
:1005A0008E110CC00FB607FCFACFE889F98980815B
:1005B00085FFF5CFCE010E947E02F1CFEB8DEC0FCF
:1005C000FD2FF11DE35AFF4FF0829FB7F8940B8F78
:1005D000EA89FB8980818062CFCFCF93DF93EC01E2
:1005E000888D8823B9F0AA89BB89E889F9898C911B
:1005F00085FD03C0808186FD0DC00FB607FCF7CFD7
:100600008C9185FFF2CF808185FFEDCFCE010E94D6
:100610007E02E9CFDF91CF91089580E090E0892BB1
:1006200029F00E94740281110E94000080E090E095
:10063000892B49F080E090E0892B29F00E9400008E
:1006400081110E94000080E090E0892B49F080E059
:1006500090E0892B29F00E94000081110E94000087
:1006600080E090E0892B49F080E090E0892B29F030
:100670000E94000081110C9400000895880F991FBA
:10068000880F991FDC01AA5FBB4FED91FC91119778
:1006900012968D919C918332910511F0C79749F480
:1006A000828181FF03C0CF010396089580819181EB
:1006B000089590E080E0089520914C04209530E06A
:1006C000F901EA5FFC4F908190952A5F3D4FD90177
:1006D0008C9140914A0450914B0442505109ECE4F2
:1006E000F4E031969F012C5434402417350770F400
:1006F00020819227292F30E0D901AA5FBC4F9C911D
:1007000098272A5F3D4FD9018C91EBCF089523E0C4
:1007100030E030934B0420934A04ECE4F4E09091F1
:100720002B07908380588183628308950F931F93D2
:10073000582F577001E010E020E030E004C0000FB7
:10074000111F221F331F5A95D2F723E096958795E4
:100750002A95E1F79927E0913507F091360766234E
:1007600021F0E0913B07F0913C07E80FF91F8081F1
:10077000442329F0082B00831F910F9108950095C1
:100780000823F9CF2F923F924F925F926F927F9200
:100790008F929F92AF92BF92CF92DF92EF92FF9291
:1007A0000F931F93CF93DF93CDB7DEB7C354D10917
:1007B0000FB6F894DEBF0FBECDBF10E000E0F80129
:1007C000EE0FFF1FE554F94F0190F081E02D3097B7
:1007D00049F041E08081811101C040E060E0C80142
:1007E0000E9496030F5F1F4F0833110541F7E090F9
:1007F0002C07F0902D070BE716E019AF08AF870123
:10080000005C1F4FF7012BE736E0D9018D919D91D8
:100810009D01009729F0DC018D919C91918380834B
:1008200032960E171F0789F7D12CC12CF601EE0F57
:10083000FF1FE55FF94F0190F081E02D309749F0FF
:1008400041E08081811101C040E061E0C6010E9469
:100850009603BFEFCB1ADB0AE8E3CE16D10431F7DB
:100860004BEC55E0E0913807F09139079F01205C8F
:100870003F4FDA018D919D91AD01009729F0DC0188
:100880008D919C919183808332962E173F0789F733
:10089000E3EAF5E0FBAFEAAFF80108E6E00EF11C91
:1008A00023EA35E0D9018D919D919D01009729F0B2
:1008B000DC018D919C91918380833296EE16FF0628
:1008C00089F7EBE7F5E0FDAFECAFE0912F07F09192
:1008D00030079F01205B3F4F0BE715E0D8018D915A
:1008E0009D918D01009749F0DC014D915D916D91D5
:1008F0007C91408351836283738334962E173F0724
:1009000069F7E3E5F5E0FFAFEEAFE0913207F09174
:1009100033079F0120563F4F83E595E0DC01CD90E2
:10092000DD90CD01C114D104F1F0D601EC90119607
:10093000FC90119712960C91129713961C91139795
:1009400014967C91149715966C91159716965C9158
:10095000169717964C91E082F18202831383748379
:1009600065835683478338962E173F07B9F6109252
:100970004B0410924A048091510590915205DC017C
:10098000ED91FC910084F185E02D1995892B09F4F6
:1009900083C08091510590915205DC01ED91FC914D
:1009A0000084F185E02D199520914A0430914B0483
:1009B000A0915105B0915205ED91FC9111970084E1
:1009C000F185E02D2817390768F4CD01199590932A
:1009D0004B0480934A0480914E0590914F050E94EC
:1009E000DA01D7CFCD011995813091400CF054C078
:1009F0008091510590915205DC01ED91FC910084AC
:100A0000F185E02D199506970CF446C04CE4842E30
:100A100044E0942E8401E0904A04F0904B04C80115
:100A20008C5494408E159F0578F4809151059091D7
:100A30005205DC01ED91FC910284F385E02D1995BE
:100A4000F80181938F01E7CF10914D048FEB810F57
:100A5000853080F00E945C039701245B3B4FF901D5
:100A60003297408121503109D9012C91342F281718
:100A7000390791F490914C0480912B07981709F451
:100A8000CDC08091510590915205DC01ED91FC9112
:100A90000680F781E02D1995409135075091360772
:100AA00030E020E0F901EE0FFF1FE554F94F01900F
:100AB000F081E02D309799F0D90183E0B695A795A4
:100AC0008A95E1F7A40FB51F8C9190E0622F6770B3
:100AD00002C0959587956A95E2F7817080832F5FB4
:100AE0003F4F28333105F1F680912C0790912D0767
:100AF000BC01605C7F4FDC01E8ADF9AD2191319123
:100B0000F9AFE8AF2115310531F04D915C911197A6
:100B1000F9015183408312966A177B0769F7FB013D
:100B200088599F4FAAADBBAD4D915D91BBAFAAAFA8
:100B30004115510529F020813181DA012D933C9333
:100B400032968E179F0771F7E0912F07F0913007CB
:100B5000CF01805B9F4FACADBDAD2D913D91BDAF41
:100B6000ACAF2115310551F0408151816281738113
:100B7000D9014D935D936D937C93139734968E17A3
:100B80009F0749F7E0913207F0913307CF01805674
:100B90009F4FAEADBFADED90FD90BFAFAEAFE114D6
:100BA000F104F1F0008111817281638154814581EA
:100BB00036812781D7010C9311961C9311971296B9
:100BC0007C93129713966C93139714965C931497D7
:100BD00015964C93159716963C93169717962C934B
:100BE00038968E179F07A9F6CD5BDF4F0FB6F894A6
:100BF000DEBF0FBECDBFDF91CF911F910F91FF9050
:100C0000EF90DF90CF90BF90AF909F908F907F90AC
:100C10006F905F904F903F902F900895B2E0EB1A45
:100C2000F108F0924B04E0924A0480914E049091B6
:100C30004F04382E292E6090500470905104762471
:100C400067247624209150044091520450E01F30D4
:100C500009F48AC5A0F5133009F480C158F41130A5
:100C600009F4F5C3123009F484C461E070E0812F07
:100C700090E022C0153009F457C508F40BC51630B2
:100C8000A1F720912E078091310790E0880F991FDE
:100C9000E22FF0E08E0F9F1F4091340704E0409F49
:100CA000A0011124480F591F2416350608F449C025
:100CB00062E070E086E090E00E9487034FC012344B
:100CC00009F40BC798F4103109F462C2113469F6C3
:100CD00084E090E090934B0480934A0410934D0479
:100CE00010924E0483E080934F0438C0143409F40A
:100CF0005EC608F4DDC5153409F0B7CF8D3AFEEDB8
:100D00009F0709F053C71092490485E480934D046E
:100D10008EE780934E0481E2E4E2F4E0DE01119676
:100D200001900D928A95E1F7FE013196AFE4B4E0AF
:100D300081919D012C543440882309F445C78D933B
:100D4000F7CF2E163F06D8F4220C331CE0912C0767
:100D5000F0912D07E20DF31D7182608280914A04AB
:100D600090914B0402968130914008F45AC58091CD
:100D70004D0464E070E090E00E94870352C528169D
:100D80003906F0F5A30170E060E080912F079091A3
:100D9000300720FC1CC091012E1B3F0BF901EE0F08
:100DA000FF1FEC7FF370E80FF91F80819181A28112
:100DB000B381AA27BB27BA0155274427842B952B3B
:100DC000A62BB72B80839183A283B383C7CFE095F3
:100DD000F095E20DF31DEE0FFF1FEC7FF370E80FAF
:100DE000F91F608071808280938066247724462971
:100DF0005729682979294083518362837383AECF51
:100E00009101237033274301B12CA12CC12CD12C8B
:100E10007601E0913207F09133072115310549F54C
:100E2000281A390A220C331C38EF232237E03322E8
:100E3000E20DF31D5080618072801381B481A58121
:100E4000940140E050E060E070E080E090E000E37A
:100E50000E94E21125292083632A6182742A72820A
:100E6000152B1383B62BB483A72BA5838683978377
:100E700075CF2130310541F54FEF241A340A281A75
:100E8000390A220C331C88EF282287E03822E20D31
:100E9000F31D5080618072801381B681A781940117
:100EA000A501B601C70100E20E94E211522A508258
:100EB000632A6182742A7282152B1383648375837B
:100EC0008B2B86839A2BD3CF2230310529F5A2E0D4
:100ED0002A0E311C281A390A220C331CB8EF2B2297
:100EE000B7E03B22E20DF31D5080618074801581D4
:100EF000B681A7819401A501B601C70100E10E9456
:100F0000E211522A5082632A618242835383762AF5
:100F10007482172B1583D4CF03E0200E311C281ABE
:100F2000390A220C331C18EF212217E03122E20D7E
:100F3000F31D52814381348125819681878180828E
:100F400091825A2952834B2943833C2934832D298A
:100F500025839E2996838F29878300CFC30101971C
:100F600063E070E08D379105C8F46101C60CD71CB1
:100F700040912E07E0913107F0E0EE0FFF1FE40FE4
:100F8000F11D8091340724E0829FC00111248E0F4F
:100F90009F1FC816D90628F062E070E083E090E059
:100FA0008BCE660C771CC301039690934B04809301
:100FB0004A04ACE4B4E011969D012C543440281747
:100FC000390710F41C92F7CF93E090934D048350AF
:100FD00080934E04E0903207F0903307A0902F07E3
:100FE000B0903007A0912C07B0912D07BAA7A9A700
:100FF000A42FB0E0BBABAAAB83E090E02C014E1A6B
:101000005F0A3D0160947094C214D30409F4A6CE23
:10101000AAA9BBA92A163B0660F49101220F331F2F
:10102000A9A5BAA52A0F3B1FD9018C9111963C9115
:101030001AC02E163F0670F520FC22C0C101AAA9D5
:10104000BBA98A1B9B0B880F991F8C7F93708A0DFD
:101050009B1DDC014D915D916D917C91AB016627EB
:101060007727842F352FD40113963C93139714962A
:101070008C93B2E08B0E911C0FEF201A300AC4CF74
:101080009301220D331D220F331F2C7F33702A0D45
:101090003B1DCACF8101037011270115110521F5F0
:1010A00081010E1B1F0B000F111F087F17700E0D03
:1010B0001F1DD8012C9111963C91119712964C91BD
:1010C000129713965C91139714966C91149715963A
:1010D0007C91159716968C91169717969C9100E324
:1010E0000E94FD11822FBFCF0130110511F50E1B9B
:1010F0001F0B020D131D000F111F087F17700E0D1F
:101100001F1DD8012C9111963C91119712964C916C
:10111000129713965C91139714966C9114971596E9
:101120007C91159716968C91169717969C9100E2D4
:10113000D7CF0230110511F50E1B1F0B020D131D29
:10114000000F111F087F17700E0D1F1DD8012C9165
:1011500011963C91119712964C91129713965C91AF
:10116000139714966C91149715967C911597169673
:101170008C91169717969C9100E1B2CF9201220DA7
:10118000331D220F331F287F37702E0D3F1D4CCF8C
:10119000C30101978B37910530F4C301880F991F64
:1011A0004817590729F063E070E080E190E084CDB2
:1011B000D101A60DB71DBDABACAB80912E07409001
:1011C0003107512C440C551CA82EB12C4A0C5B1C29
:1011D00020913407B4E02B9F90011124240D351D7C
:1011E000ECA9FDA9E217F30718F062E070E0DDCF8B
:1011F00026E030E030934B0420934A0410934D04D2
:1012000030924E0420924F04109250046092510488
:101210006090320770903307C0902F07D09030074E
:10122000DFAACEAA40912C0750912D079101220FE1
:10123000331F7A01E20EF31EFBAAEAAAD101A41918
:10124000B509C50180959095FC01E40DF51D229628
:10125000FFAFEEAF22976201CA18DB082496DFAE1B
:10126000CEAE2497ECA8FDA82E143F0409F4D9C2F1
:10127000F40147818085542F482F2A143B0488F4B9
:10128000EAA9FBA951834083EAA9FBA93296FBABEB
:10129000EAAB1196FFEF2F1A3F0A02E0800E911C75
:1012A000E1CF24143504C8F570E060E020FC20C0D4
:1012B0002496EEADFFAD2497EA0FFB1FEE0FFF1F44
:1012C000EC7FF370CEA8DFA8EC0DFD1D008111812D
:1012D0002281338122273327BA0155274427402B07
:1012E000512B622B732B4083518362837383CCCF4A
:1012F0002296EEADFFAD2297EA0FFB1FEE0FFF1F08
:10130000EC7FF370EEA8FFA8EE0DFF1D00811181A8
:101310002281338100271127E2CFC10183709927F1
:101320006A01F12CE12C00E010E09801C9A6DAA6D0
:10133000EBA6FCA60DA71EA72FA738ABFD010097B3
:1013400041F5EE0FFF1FE87FF770E60DF71DD08027
:10135000D9AAC180D280E380F480158129A53AA55D
:1013600040E050E060E070E080E090E000E30E9448
:10137000E21109A9202B20833C2931834D29428386
:101380005E295383F62AF482172B1583868397836D
:101390007BCF8130910541F53196EE0FFF1FE87F3D
:1013A000F770E60DF71D108119ABC180D280E38084
:1013B000F680178129A53AA540E050E060E070E092
:1013C00080E090E000E20E94E21109A9202B208336
:1013D0003C2931834D294283E52AE3826483758366
:1013E0008F298683912BD3CF029729F53296EE0F62
:1013F000FF1FE87FF770E60DF71D108119ABC18064
:10140000D480E580F680178129A53AA540E050E018
:1014100060E070E080E090E000E10E94E21109A944
:10142000202B20833C29318342835383D62AD482C4
:10143000E72AE582D5CF3396EE0FFF1FE87FF770DE
:10144000E60DF71D19A510832AA521831DCFC30121
:10145000019763E070E0803D974068F52091370781
:10146000C101860D971D62E070E02817190618F17A
:10147000C30143E0969587954A95E1F79C012D5F5E
:101480003F4F30934B0420934A0493012770332736
:10149000232B29F0049690934B0480934A04809167
:1014A0004A0490914B04ECE4F4E0813021E092078F
:1014B00028F064E070E081E090E0FECB31969F017F
:1014C0002C5434402817390710F41082F7CF91E0DC
:1014D00090934D04835080934E04009135071091F2
:1014E000360770E060E020E0C12CD12C7601C39477
:1014F000D701C601022E04C0880F991FAA1FBB1F67
:101500000A94D2F789A79AA7ABA7BCA7FB0183E0EF
:10151000F695E7958A95E1F7E15BFB4F3081A101F4
:1015200093E0569547959A95E1F74F715527400FEF
:10153000511FDA014C9150E0B22DB77002C05595A1
:101540004795BA95E2F789A540FF0FC0832B8083AA
:101550002F5F283009F420E0EFEF2E1A3E0A6F5F6C
:101560007F4F6616770621F6F9CB809538233083B6
:10157000EFCFC301019763E070E0803D974068F5CD
:1015800020913D07C101860D971D62E070E028178C
:10159000190618F1C30113E0969587951A95E1F79E
:1015A0009C012D5F3F4F30934B0420934A049301DD
:1015B00027703327232B29F0049690934B048093B4
:1015C0004A0480914A0490914B04ECE4F4E08130A9
:1015D00001E0900728F064E070E082E090E06CCBDE
:1015E00031969F012C5434402817390710F410828B
:1015F000F7CF92E090934D04835080934E04609116
:101600003B0770913C0750E040E010E0C12CD12C2A
:101610007601C394D701C601012E04C0880F991F1B
:10162000AA1FBB1F0A94D2F789A79AA7ABA7BCA78A
:10163000FA0133E0F695E7953A95E1F7E15BFB4F68
:1016400000819101A3E036952795AA95E1F7260F31
:10165000372F311DD9012C9130E0B22DB77002C067
:1016600035952795BA95E2F789A520FF0FC0802B05
:1016700080831F5F183009F410E0EFEF2E1A3E0A46
:101680004F5F5F4F6416750629F668CB8095082377
:101690000083EFCFC301019763E070E08D379105C0
:1016A00050F420913A07C101860D971D281719069D
:1016B00028F462E070E084E090E0FECAC301880F85
:1016C000991F039690934B0480934A04ECE4F4E052
:1016D00031969F012C5434402817390710F410829A
:1016E000F7CF94E090934D04835080934E04220CE6
:1016F000331CE0913807F0913907E20DF31D01E04A
:10170000601A710812E0810E911C2FEF62167206AA
:1017100009F424CB808191813296D40111969C9357
:10172000119712968C93EBCF6114BFEF7B0629F0D3
:1017300063E070E06114710449F4809137078150CF
:10174000990B8215930528F462E070E085E090E043
:10175000B3CA41E06114EFEF7E0609F040E060E0BB
:10176000C1010E949603FACA930113E036952795AA
:101770001A95E1F7822FB30167707727672B11F075
:1017800081E0820F930121503109203B374018F44A
:101790008417150629F063E070E08FE090E08CCAB2
:1017A00020913707C101860D971D2817190618F4D7
:1017B00062E070E0F2CF86E090E090934B0480937B
:1017C0004A048FE080934D0430924E0420924F04DF
:1017D000709250046092510410E000E0F12CF80186
:1017E000A3E0F695E795AA95E1F7E45BFB4F478107
:1017F00050E00F2C02C0559547950A94E2F74170CE
:1018000060E0C101800F911F0E949603F394B8E03D
:10181000CB2EFC1001C0F12C0F5F1F4F601671061C
:10182000F1F600914A0410914B04780122E0E20E97
:10183000F11CF0924B04E0924A040E945C03F80110
:10184000E45BFB4F908381838091500587FD09C045
:1018500061E00E944E0180914C0590914D050E94DF
:10186000DA018091510590915205DC01ED91FC91D6
:101870000280F381E02DA7016CE474E0199580915A
:10188000510590915205DC01ED91FC910680F781A4
:10189000E02D199580914C0590914D050E94DA013B
:1018A0008091500587FDF8C860E00E944E01F4C8A1
:1018B00003E02016310408F06FC013E061167104D4
:1018C00008F06AC06214730408F466C0C101880F8E
:1018D000991F880F991F9C012A5F3B4F7901610175
:1018E000E7E58E2EE4E09E2E90E080E0D701129690
:1018F0002D913C912332310529F0B12CA12C2733B5
:10190000310519F4AA24A394B12C8501080F191FDD
:101910009801255F3F4F21303140E0F5C6010E941C
:101920003E03A501BC01C4010E943D138A0C9B1C0F
:1019300096012F5F3F4FE4E0EE0EF11CC801160147
:101940006216730628F5C801079690934B0480939E
:101950004A0483E480934D048EE780934E041092F2
:101960004F04209250048091EF079091F00720914E
:10197000F1073091F2073093510420935204909371
:101980005304809354041093550400935604E6C9FD
:101990006901ACCF8C01D7CF83E090E090934B04EA
:1019A00080934A0483E480934D0481E829C0F5E1E3
:1019B0002F163104E0F48E010F5F1F4F2801F8014C
:1019C000B12CA12C12E0810E911C2A143B04D9F0F9
:1019D000D40112968C91129713969C91892798277F
:1019E000892781939193BFEFAB1ABB0AEBCF83E0BA
:1019F00090E090934B0480934A0410934D0482E846
:101A000080934E04ABC9912C812C80E0712C612C09
:101A10000BE010E0A814B904E9F1F201E190F190B3
:101A20002F01F3E0EF16F10440F083E090E0909393
:101A30004B0480934A0484E4B6CFF701EE0FFF1FF6
:101A4000EE0FFF1FEA5FFB4F228133812332310506
:101A500029F0D12CC12C2733310519F4CC24C3949F
:101A6000D12C18012C0C3D1C21E02216320690F4DA
:101A7000C7010E943E03A601BC01C801845B9B4FC5
:101A80000E943D136C0C7D1C3FEF831A930A8E2D30
:101A90008101C0CF10934B0400934A0494E49093C7
:101AA0004D049EE790934E0410924F04809350048F
:101AB0008091EF079091F0072091F1073091F207A4
:101AC0003093510420935204909353048093540410
:101AD000709255046092560441C943E024163104C3
:101AE00050F48091510490915204982789279827A7
:101AF0008A3F910540F083E090E090934B048093FF
:101B00004A0482E450CFF101EE0FFF1FEE0FFF1FDA
:101B1000EA5FFB4F00811181828193812223E9F1E9
:101B20008332910529F0F12CE12C8733910519F4CA
:101B3000EE24E394F12C83329105B1F0C79711F5AF
:101B4000A70163E574E0D8018D919C910E943D133B
:101B5000A70163E574E0C80103960E943D13F801F4
:101B60008281826082830EC0A70163E574E0C801B0
:101B700003960E943D13D80112968C9112978260B1
:101B800012968C9383E090E090934B0480934A04E8
:101B900082E480934D048EE733CF8332910511F0B8
:101BA000C79781F7F80182818D7FDCCF8E3D9D4AFA
:101BB00021F481E080934904A8C883E090E09093E9
:101BC0004B0480934A04A1C830934B0420934A04E9
:101BD000C5C81F920F920FB60F9211242F933F93F7
:101BE0008F939F93AF93BF938091FD079091FE07D2
:101BF000A091FF07B09100083091FC0723E0230F6C
:101C00002D3758F50196A11DB11D2093FC07809337
:101C1000FD079093FE07A093FF07B0930008809103
:101C2000010890910208A0910308B0910408019660
:101C3000A11DB11D8093010890930208A093030891
:101C4000B0930408BF91AF919F918F913F912F91D5
:101C50000F900FBE0F901F90189526E8230F029645
:101C6000A11DB11DD2CF1F920F920FB60F9211245A
:101C70000BB60F922F933F934F935F936F937F9386
:101C80008F939F93AF93BF93EF93FF938EE397E070
:101C90000E947E02FF91EF91BF91AF919F918F9132
:101CA0007F916F915F914F913F912F910F900BBE5C
:101CB0000F900FBE0F901F9018951F920F920FB6A6
:101CC0000F9211240BB60F922F938F939F93EF9344
:101CD000FF93E0914E07F0914F078081E091540708
:101CE000F091550782FD1DC09081809157078F5F4D
:101CF0008F7320915807821741F0E0915707F0E069
:101D0000E25CF84F958F80935707FF91EF919F9179
:101D10008F912F910F900BBE0F900FBE0F901F90C1
:101D200018958081F2CF789484B5826084BD84B5A3
:101D3000816084BD85B5826085BD85B5816085BDC6
:101D400080916E00816080936E001092810080917E
:101D50008100826080938100809181008160809306
:101D60008100809180008160809380008091B1002B
:101D700084608093B1008091B00081608093B00056
:101D800080919100826080939100809191008160A8
:101D90008093910080919000816080939000809169
:101DA000A10082608093A1008091A1008160809356
:101DB000A1008091A00081608093A000809121010A
:101DC00082608093210180912101816080932101B3
:101DD0008091200181608093200180917A0084604D
:101DE00080937A0080917A00826080937A0080915B
:101DF0007A00816080937A0080917A008068809375
:101E00007A001092C10048E454E05093DC074093FC
:101E1000DB071092480427E434E03093E007209376
:101E2000DF071092470486E494E09093E4078093E0
:101E3000E3071092460450930C0640930B06309330
:101E40000E0620930D069093BC068093BB06E0918E
:101E50004E07F0914F0782E08083E0914A07F091AE
:101E60004B071082E0914C07F0914D0780E1808391
:101E700010925607E0915207F091530786E0808355
:101E8000E0915007F0915107808180618083E0915B
:101E90005007F0915107808188608083E09150075E
:101EA000F0915107808180688083E0915007F09124
:101EB000510780818F7D80838EE397E09093520558
:101EC000809351058FEF809350058EEE92E09093B2
:101ED0004F0580934E0581E49AE090934D058093E1
:101EE0004C0581E080932B0784E380932E0784E1E7
:101EF000809331078093340788E38093370790E21B
:101F000090933A0780933D0787E090E00E94181273
:101F10009093360780933507009709F451C0C7E0C6
:101F2000FC012C2F11922A95E9F788E690E00E9497
:101F3000181290932D0780932C07009709F440C046
:101F400028E6FC0111922A95E9F780E590E00E94CD
:101F500018129093300780932F07009789F120E59E
:101F6000FC0111922A95E9F780EA90E00E9418128C
:101F70009093330780933207009711F120EAFC0118
:101F800011922A95E9F787E090E00E941812909349
:101F90003C0780933B07009799F0FC011192CA958A
:101FA000E9F780E490E00E9418129093390780933B
:101FB0003807009729F020E4FC0111922A95E9F7EF
:101FC000D0E0C0E08E01000F111F0554194FF80139
:101FD00080819181892B49F481E090E00E94181260
:101FE000F80191838083FC0110822196C833D105CA
:101FF00049F7C0912C07D0912D07EBE7F6E090E070
:1020000080E021913191232B39F4DF0112979E0159
:10201000280F391F2D933C9302968034910589F740
:1020200010E000E0C801880F991F9C01255F394F1F
:102030007901F90180819181892B49F481E090E057
:102040000E941812F70191838083FC0110820F5FB8
:102050001F4F0833110531F72091380730913907A8
:10206000EBECF5E090E080E041915191452B39F4A3
:10207000DF011297A901480F591F4D935C930296F7
:102080008034910589F7E3EAF5E090E080E0C05CF8
:10209000DF4F21913191232B39F4DF0112979E01FB
:1020A000280F391F2D933C9302968832910589F7AA
:1020B00040912F0750913007EBE7F5E090E080E08A
:1020C00021913191232B59F4DF0112979C01220FAA
:1020D000331F220F331F240F351F2D933C9301967E
:1020E0008431910569F74091320750913307E3E558
:1020F000F5E090E080E021913191232B61F4DF0144
:1021000012979C0163E0220F331F6A95E1F7240FB9
:10211000351F2D933C9301968431910561F780E240
:102120009EE4A0E0B0E08093F4079093F507A093BD
:10213000F607B093F7070E94E5016093F8077093E4
:10214000F9078093FA079093FB07C1E00E94E5012D
:102150000091F8071091F9072091FA073091FB07D9
:10216000601B710B820B930B0091F4071091F50724
:102170002091F6073091F7076017710782079307E0
:1021800008F492C08091EF079091F007A091F107B9
:10219000B091F2070196A11DB11D8093EF079093B6
:1021A000F007A093F107B093F2078091E50781FD56
:1021B0000DC08091E10781FF90C08091E2078111FD
:1021C00093C0E091E307F091E40780838091E507F5
:1021D00081FD12C08091DD07E091E307F091E407F3
:1021E00081FF95C08091DE07811104C081E090815C
:1021F000911101C080E080838091EB079091EC0702
:10220000A091ED07B091EE07AC01BD01535D6E4C9E
:102210007E4F4115FAEC5F07FAE96F07FBE37F0792
:1022200008F07BC04093EB075093EC076093ED07F9
:102230007093EE070E94C2038091F307811118C0CA
:10224000C093F3070E94E5010091F4071091F50790
:102250002091F6073091F707601B710B820B930BEF
:102260006093F8077093F9078093FA079093FB0740
:102270008091F8079091F907A091FA07B091FB07B8
:102280004091F4075091F5076091F6077091F707B8
:10229000840F951FA61FB71F8093F8079093F90727
:1022A000A093FA07B093FB070E94E5010091F8079D
:1022B0001091F9072091FA073091FB07601B710B11
:1022C000820B930B603177428105910510F00E94DB
:1022D000C20388950E940D0339CFE091DF07F0918A
:1022E000E0078081882351F08091DD0781FF08C0DD
:1022F00081E09091DE07992309F463CF80E061CFFC
:10230000E091DB07F091DC0781E09081F4CFA091B0
:10231000DB07B091DC078C9167CF4091E7075091C4
:10232000E8076091E9077091EA079D59A946BA4309
:102330008093EB079093EC07A093ED07B093EE0723
:102340004F5F5F4F6F4F7F4F4093E7075093E80712
:102350006093E9077093EA076DCFEEE3F7E013822D
:10236000128288EE93E0A0E0B0E084839583A68398
:10237000B78386E194E09183808385EC90E0958734
:10238000848784EC90E09787868780EC90E0918B3F
:10239000808B81EC90E0938B828B82EC90E0958B2C
:1023A000848B86EC90E0978B868B118E128E138E29
:1023B000148E0895EE0FFF1F881F8BBF0790F691B4
:1023C000E02D1994002E083090F0982F872F762F4B
:1023D000652F542F432F322F22270850F4CF220F7E
:1023E000331F441F551F661F771F881F991F0A95AB
:1023F000B2F7002D089597FD1094002E083098F044
:102400000850232F342F452F562F672F782F892FD1
:10241000912DF4CF15949795879577956795579556
:102420004795379527950A95AAF71124002D089509
:102430000F931F93CF93DF938230910510F482E0C6
:1024400090E0E0910708F091080830E020E0B0E06B
:10245000A0E0309799F42115310509F44AC0281BF2
:10246000390B24303105D8F58A819B8161157105BE
:1024700089F1FB0193838283FE0111C04081518168
:102480000281138148175907E0F04817590799F45A
:10249000109761F012960C93129713961C93329634
:1024A000CF01DF91CF911F910F91089500930708FD
:1024B00010930808F4CF2115310551F04217530746
:1024C00038F0A901DB019A01BD01DF01F801C1CF9C
:1024D000EF01F9CF9093080880930708CDCFFE0154
:1024E000E20FF31F8193919322503109398328839E
:1024F000D7CF2091050830910608232B41F4209175
:1025000002023091030230930608209305082091BF
:102510000002309101022115310541F42DB73EB77B
:102520004091040250910502241B350BE0910508EF
:10253000F0910608E217F307A0F42E1B3F0B2817B3
:10254000390778F0AC014E5F5F4F2417350748F02C
:102550004E0F5F1F50930608409305088193919397
:102560009FCFF0E0E0E09CCFCF93DF930097E9F0BE
:10257000FC01329713821282A0910708B0910808DB
:10258000ED0130E020E01097A1F420813181820F2D
:10259000931F20910508309106082817390709F084
:1025A00061C0F0930608E0930508DF91CF9108958C
:1025B000EA01CE17DF07E8F54A815B819E014115EC
:1025C0005105B1F7E901FB83EA8349915991C40FA1
:1025D000D51FEC17FD0761F4808191810296840F6D
:1025E000951FE90199838883828193819B838A83E4
:1025F000F0E0E0E012968D919C9113970097B9F569
:102600002D913C911197CD010296820F931F20913D
:102610000508309106082817390739F6309751F523
:102620001092080810920708B0930608A0930508B6
:10263000BCCFD383C28340815181840F951FC817BB
:10264000D90761F44E5F5F4F88819981480F591F08
:10265000518340838A819B81938382832115310535
:1026600009F0B0CFF0930808E09307089ECFFD0172
:10267000DC01C0CF13821282D7CFFB01DC0102C084
:1026800001900D9241505040D8F70895F894FFCF33
:1026900000000908800000C0C101C30302C2C606D1
:1026A00007C705C5C404CC0C0DCD0FCFCE0E0ACA8A
:1026B000CB0BC90908C8D81819D91BDBDA1A1EDEDA
:1026C000DF1FDD1D1CDC14D4D515D71716D6D2128A
:1026D00013D311D1D010F03031F133F3F23236F69A
:1026E000F737F53534F43CFCFD3DFF3F3EFEFA3A4A
:1026F0003BFB39F9F83828E8E929EB2B2AEAEE2EDA
:102700002FEF2DEDEC2CE42425E527E7E62622E249
:10271000E323E12120E0A06061A163A3A26266A699
:10272000A767A56564A46CACAD6DAF6F6EAEAA6A09
:102730006BAB69A9A86878B8B979BB7B7ABABE7E59
:102740007FBF7DBDBC7CB47475B577B7B67672B209
:10275000B373B17170B05090915193535292965699
:102760005797559594549C5C5D9D5F9F9E5E5A9AC9
:102770009B5B99595898884849894B8B8A4A4E8E59
:102780008F4F8D4D4C8C44848545874746868242C9
:1027900043834181804000C1814001C0804101C02C
:1027A000804100C1814001C0804100C1814000C121
:1027B000814001C0804101C0804100C1814000C111
:1027C000814001C0804100C1814001C0804101C001
:1027D000804100C1814001C0804100C1814000C1F1
:1027E000814001C0804100C1814001C0804101C0E1
:1027F000804100C1814000C1814001C0804101C0D1
:10280000804100C1814001C0804100C1814000C1C0
:10281000814001C0804101C0804100C1814000C1B0
:10282000814001C0804100C1814001C0804101C0A0
:10283000804100C1814000C1814001C0804101C090
:10284000804100C1814001C0804100C1814000C180
:10285000814001C0804100C1814001C0804101C070
:10286000804100C1814001C0804100C1814000C160
:10287000814001C0804101C0804100C1814000C150
:10288000814001C0804100C1814001C0804101C040
:10289000804100C18140DB072300DF072300E307FD
:1028A000370000000000A0020A023702ED026802B1
:1028B00046025A0261653138383331653130383279
:1028C000303939373762626236636435643830359F
:0628D00033373062000006
:00000001FF
